:1000000097C0BBC0E7C0B9C0D2C4B7C0B6C0B5C006
:10001000B4C0B3C0B2C0B1C0B0C0AFC0AEC02A2B74
:1000200028000000000000000000000000000000A8
:100030000029000000002C9EB4A0A1A2A434A6A711
:10004000A5AE362D3738271E1F2021222324252632
:10005000B333B62EB7B89F8485868788898A8B8C00
:100060008D8E8F909192939495969798999A9B9C48
:100070009D2F3130A3AD350405060708090A0B0C86
:100080000D0E0F101112131415161718191A1B1C28
:100090001DAFB1B0B505010906A101050719E02999
:1000A000E715002501750195088102950175082560
:1000B00065190029658100C0090222000101008044
:1000C00032090400000103010100092101010001BE
:1000D0002223000705810308000A12011001000015
:1000E0000008C016DB2700010102000110034400D4
:1000F0006900670069004B00650079001C0364001B
:100100006900670069007300740075006D0070007D
:100110002E0063006F006D0004030904010204084F
:100120001020010101010101003600380037F00202
:1001300011241FBECFE5D2E0DEBFCDBF10E0A0E6A8
:10014000B0E0EAE5FBE002C005900D92A237B107EE
:10015000D9F720E0A2E7B0E001C01D92A83BB207AA
:10016000E1F711E0C0E3D1E003C02297FE01EFD434
:10017000CE32D107D1F708D4EEC442CFA82FB92F81
:1001800080E090E041E050EA609530E009C02D91B8
:1001900082279795879510F084279527305EC8F3BE
:1001A0006F5FA8F30895EADF8D939D930895A6E00D
:1001B00088279927AA9569F00197E1F3B399FCCFB5
:1001C000B39BFECF81E09927A6B3019611F0A871E9
:1001D000D9F70895CF93CFB7CF93C395B39BE9F7E2
:1001E000B39B0BC0B39B09C0B39B07C0B39B05C0B7
:1001F000B39B03C0B39B01C0D5C00F92DF93C091E6
:100200009B00DD27CE55DF4F012EB39B03C0DF914E
:100210000F90E6CF2F930F931F934F932FEF4F6FB6
:1002200006B303FB20F95F933F9350E03BE065C0CA
:1002300016B30126502953FDC89556B3012703FB79
:1002400025F92F7306B3B1F05027102713FB26F9B9
:1002500006B22230F0F000C016B3012703FB27F9E5
:100260000126502906B22430E8F54F77206816B3EE
:100270000000F6CF50274F7D206206B2102F0000FD
:1002800000C006B300265029102713FB26F906B23A
:10029000E2CF4F7B06B3206400C0DACF012650299D
:1002A000187106B269F14E7F2160012F16B328C084
:1002B000002650294D7F06B22260102F29C001264A
:1002C00050294B7F06B22460012F2DC016B30126A2
:1002D0005029477F2860000006B22EC04F7E06B32B
:1002E000206130C0422706B34993002650291027C9
:1002F00006B24FEF13FB20F9297F16B379F218717C
:1003000059F10126502906B2012703FB21F9237F69
:1003100006B371F2002650293150D0F006B21027F2
:1003200013FB22F9277E16B351F20126502901272B
:1003300003FB06B223F92F7C49F2000006B3102715
:1003400013FB24F90026502906B22F7939F270CF19
:1003500010E21ABF002719C03B503195C31BD04093
:1003600010E21ABF0881033C09F10B34F9F0209127
:1003700099001981110F1213EDCF4A81441F0936DC
:1003800051F10D3211F0013E29F70093A0003F9189
:100390005F914F911F910F912F91DF910F90CAB7ED
:1003A000C5FD1BCFCF91CFBFCF9118952091A00055
:1003B000222369F310919E00112379F534307AF1EC
:1003C00030939E0020939A0010919B003BE0311BDC
:1003D00030939B0024C000919E000130F4F40AE5A4
:1003E0004F7049F43091670034FD1AC000936700E4
:1003F000C2E8D0E019C030918D0034FD11C00093E7
:100400008D00CEE8D0E010C0052710E000C021C06C
:10041000052710E0C89508BB14C03AE501C032EDCD
:10042000032EC0E0D0E032E017B31861C39A08B3DE
:1004300017BB58E120E84FEF20FF052708BB2795A1
:1004400017951C3F28F700004552B0F720FF0527FD
:10045000279508BB17951C3FB8F629913A9561F787
:10046000077E10919F00110F08BBC250D04011F0C1
:100470001093990010E21ABF086017B3177E402F3F
:10048000477E54E05A95F1F708BB17BB48BB7FCFB6
:100490000F931F93CF93DF9300D0CDB7DEB78C01BE
:1004A00080918D0084FD0CC04A83698317D180E957
:1004B00090E50197F1F700C0000069814A81F0CF13
:1004C000F8014283638362E0C80102960F900F90A7
:1004D000DF91CF911F910F91DDC0CF93DF93EC019E
:1004E000E62FF0E0EA5EFF4F6491262F30E0220F06
:1004F000232F221F330B232B11F040E201C040E0D9
:100500006F77CE01C5DF40E060E0CE01C1DF81E062
:1005100090E0DF91CF910895FC0184E790E0909303
:100520009D0080939C0080818076803231F48181AF
:100530008A3019F483818093760080E0089562E028
:1005400080E0A1C28F929F92AF92BF92CF92DF9232
:10055000EF92FF92CF93DF9300D000D0CDB7DEB7FC
:1005600080E0C8D2892B69F540E06CE282E790E038
:100570008FDF40E060E082E790E08ADF5FD24B01EE
:100580005C0194EFC92EDD24D394E12CF12C56D2DA
:10059000C61AD70AE80AF90AC80CD91CEA1CFB1CBF
:1005A00069837A838B839C8399D069817A818B81DB
:1005B0009C811C141D041E041F041CF44B015C01CF
:1005C000E6CF0F900F900F900F90DF91CF91FF909B
:1005D000EF90DF90CF90BF90AF909F908F90089555
:1005E0008CE690E09093730080937200F894BB9A2D
:1005F00027EA86E99CE0215080409040E1F700C066
:100600000000BB987FD1789410927500109274000E
:1006100062E084E790E03EC0DF92EF92FF920F939A
:100620001F93CF93DF93C8E0D0E0F12C80E8E82E51
:10063000DF2CDE0CD1BEBBDD8C01043389E0180752
:100640000CF4FD2CE694219799F78FEF8F0D81BF65
:10065000CF2DD0E0219681B790E0C817D9078CF054
:10066000A6DD8453994097FF03C091958195910928
:100670008017910714F4F1B68C0181B78F5F81BFA9
:10068000EACFF1BEDF91CF911F910F91FF90EF90D4
:10069000DF900895CF93C62F20918D0024FF07C0CF
:1006A00020918E0038E8232720938E0003C02AE58E
:1006B00020938D00DC01EFE8F0E09C2F9E0F8D91E0
:1006C0008193892F8E1B1816D4F36C2F8FE890E03E
:1006D0006ADDCC5FC0938D00CF910895CF93DF93F7
:1006E00080919E00835087FDA8C090919B0020912F
:1006F0009A002D3209F09FC0883009F09CC0CCE0F0
:10070000D0E0C91BD109CE55DF4F83EC8093820026
:100710008AE580936700109278008881807619F0CE
:10072000CE01FADE7FC09A8110928B0089818111FF
:1007300006C010928C002BE830E082E06FC085305C
:1007400019F490939F0067C0863009F04EC08B81EA
:10075000813041F48AED90E090939D0080939C005D
:1007600082E13FC0823041F488EB90E090939D009D
:1007700080939C0082E235C08330F1F4911108C06F
:1007800088E191E090939D0080939C0084E029C0D3
:10079000913041F48CEF90E090939D0080939C0009
:1007A0008CE11FC09230E1F48CEE90E090939D00BC
:1007B00080939C0080E115C0813241F48AEC90E086
:1007C00090939D0080939C0089E00BC0823241F49D
:1007D00085E990E090939D0080939C0083E201C0A6
:1007E00080E090E4909378001DC0883069F08930F3
:1007F00019F49093A1000FC08A3049F08B3059F45E
:100800008BE480938E0007C021EA30E002C02BE821
:1008100030E081E003C02BE830E080E030939D00C1
:1008200020939C009F81911104C09E81981708F429
:10083000892F8093660010929E008091670084FF4C
:1008400046C0809166008F3F09F441C0C82F8930AF
:1008500008F0C8E08C1B809366008091820098E8C5
:10086000892780938200CC2331F120919C00309124
:100870009D008091780086FF0BC0A3E8B0E0F901ED
:100880008C2F8A0F94919D9331968A13FBCF09C0C8
:10089000D901E3E8F0E08C2F8E0F9D9191938E1398
:1008A000FCCF8FEF8C0F90E00196820F931F9093F7
:1008B0009D0080939C006C2F83E890E074DCCC5FFB
:1008C000CC3019F08FEF80936600C093670084E10D
:1008D00096B3987131F48150D9F710929F0010921D
:1008E0009900C1E08111C0E0809177008C1739F048
:1008F000C11103C0F89490DE7894C0937700DF9123
:10090000CF910895AC9A8BB780628BBF8BE48093B4
:100910008E008AE580938D0008950F931F93CF93E7
:10092000DF93EC018B01F80161918F01662341F0A7
:10093000E881F9810190F081E02DCE010995F3CF96
:10094000DF91CF911F910F910895EF92FF920F9336
:100950001F93CF93DF937C018A01EB01060F171FD2
:10096000C017D10751F06991D701ED91FC91019029
:10097000F081E02DC7010995F3CFDF91CF911F9151
:100980000F91FF90EF90089565D0D9DDDBDDFECFAC
:1009900083B7887F83BF8AB58C7F81608ABD83B728
:1009A000877F83BF83B7887F836083BF08957894F0
:1009B0001F920F920FB60F9211242F933F938F9394
:1009C0009F93AF93BF9380917A0090917B00A09109
:1009D0007C00B0917D00309179002CE7230F2D37FA
:1009E00028F02FEF230F0196A11DB11D2093790050
:1009F00080937A0090937B00A0937C00B0937D005D
:100A000080917E0090917F00A0918000B091810044
:100A10000196A11DB11D80937E0090937F00A0934D
:100A20008000B0938100BF91AF919F918F913F91D2
:100A30002F910F900FBE0F901F9018952FB7F8941D
:100A400060917A0070917B0080917C0090917D0094
:100A50002FBF0895789480B7806880BF80B7806486
:100A600080BF8CB580648CBD8FEF8DBD80B7807FDB
:100A7000876080BF89B7846089BF8ADF86B187605D
:100A800086B9379A0895CF93DF9390E0FC01E45E36
:100A9000FE4F2491FC01EE5DFE4F8491882339F1D5
:100AA00090E0FC01E45DFE4FA491B0E0FC01E65D46
:100AB000FE4F8491611106C09FB7F8948C912095E8
:100AC000822313C0623069F4C82FD0E09FB7F89436
:100AD0008C91322F309583238C938881822B88834D
:100AE00005C09FB7F8948C91822B8C939FBFDF91A8
:100AF000CF910895282F30E0F901E45EFE4F9491E4
:100B0000F901EE5DFE4FE491EE23E1F0811103C0A7
:100B10008AB58F7304C0813021F48AB58F7C8ABD79
:100B200005C0843019F48CB58F7C8CBDF0E0E85D95
:100B3000FE4FE491F0E02081292381E090E021F450
:100B400080E0089580E090E00895EE0FFF1F05908B
:0A0B5000F491E02D0994F894FFCF12
:100B5A000000B8008000FF5A000000006D028D04FA
:020B6A00A504E0
:00000001FF
